:0400000033EF00F0EA
:0600080041829AEF0FF0A7
:100018004180D8CF1CF0E8CF1DF0E0CF1EF0FACF1A
:100028001FF0FBCF20F09DAC1CEF00F01EEF00F09E
:1000380027EF00F09EAC23EF00F025EF00F027EF4C
:1000480000F091EC18F020C0FBFF1FC0FAFF1EC0A3
:10005800E0FF1DC0E8FF1CC0D8FF41901000A5EFCD
:0200680016F090
:1010000000F434BE34AE3448221425E834E427AA70
:1010100035A2359A3592358A3582357A35DC3458A1
:101020002B5573657220456E746572656420696E18
:1010300076616C69642050494E204C6F636174691D
:101040006F6E206F72204E554C4C20504F494E54BD
:1010500045520A005573657220456E746572656469
:1010600020696E76616C6964204C6F676963206FDC
:1010700072204E554C4C20504F494E5445520A0058
:1010800054454D503A2000446174653A2000444173
:1010900054453A200054696D653A2000256C75006E
:0710A0002569002575000021
:1010A8000001E851D96EDA6ADFCFF6FF100EF76E4D
:1010B800F86A0800F550250AD8A465EF08F067EF2C
:1010C80008F09DEF0AF0E851D96EDA6ADF2A000EBF
:1010D800296E000E286E28C02EF02A682B68E85169
:1010E800D96EDA6ADF50F06FF0C0F6FF100EF76EB7
:1010F800F86A0800F5CFF5F08DEF08F0F02BAAEFAD
:1011080008F0690EF56FAAEF08F0000EF56FAAEF68
:1011180008F0F551EB6FEC6BEC51000AD8B497EF7F
:1011280008F089EF08F0EB51640AD8B485EF08F0AD
:101138000D0AD8B485EF08F0050AD8B482EF08F094
:10114800190AD8B485EF08F089EF08F0F0C0F6FF67
:10115800100EF76EF86A0800F550640AD8B4B7EFB5
:1011680008F0B9EF08F0FFEF08F0F0C0F6FF100E36
:10117800F76EF86A0800F550690AD8A4C6EF08F0B7
:10118800C8EF08F0AFEF09F0FFEF08F0E9C0D9FFAA
:10119800EAC0DAFFDFCFEBF0020EDE26DFCFECF09D
:1011A800000EDD22EBC0D9FFECC0DAFFDECFF1F094
:1011B800DDCFF2F0000EF2BFFF0EF36FF46F14EF05
:1011C80009F0E9C0D9FFEAC0DAFFDFCFEBF0040E7F
:1011D800DE26DFCFECF0000EDD22EBC0D9FFECC03D
:1011E800DAFFDECFF1F0DECFF2F0DECFF3F0DECFC4
:1011F800F4F014EF09F0F551EB6FEC6BEC51000AC9
:10120800D8B409EF09F014EF09F0EB51690AD8B422
:10121800CAEF08F0050AD8B4E5EF08F014EF09F0B2
:10122800E851D96EDA6AF029DF6E200EF56FF4BF47
:1012380020EF09F023EF09F0010E24EF09F0000E6A
:10124800EF6FF507240EF525D96EDA6A010EDA225A
:10125800F1C0D8F0F2C0D9F0F3C0DAF0F4C0DBF096
:101268000A0EDC6F000EDD6F000EDE6F000EDF6F02
:10127800ADEC10F0D8C0E2F0D9C0E3F017EC18F0EC
:101288000001E251300FDF6EF1C0D8F0F2C0D9F0A2
:10129800F3C0DAF0F4C0DBF00A0EDC6F000EDD6F8D
:1012A800000EDE6F000EDF6F26EC10F0D8C0F1F0F4
:1012B800D9C0F2F0DAC0F3F0DBC0F4F00001F1516C
:1012C800F211F311F411D8B46CEF09F06EEF09F0D4
:1012D80076EF09F0F551D8A474EF09F076EF09F02C
:1012E80025EF09F0F551D8B47CEF09F07EEF09F04D
:1012F800A4EF09F0EF51D8B484EF09F086EF09F0B4
:10130800A4EF09F0F507240EF525D96EDA6A010E67
:10131800DA222D0EDF6EA4EF09F0240EF525D96E22
:10132800DA6A010EDA22DF50EB6FEB51D86FD96B16
:10133800E6C0DAF0E7C0DBF086EC11F00001F52B2F
:10134800200EF519D8A4ABEF09F0ADEF09F091EF35
:1013580009F0B1EF0AF0F0C0F6FF100EF76EF86A68
:101368000800F550750AD8A4BCEF09F0BEEF09F0E3
:1013780096EF0AF0F6EF09F0E9C0D9FFEAC0DAFF04
:10138800DFCFEBF0020EDE26DFCFECF0000EDD2221
:10139800EBC0D9FFECC0DAFFDECFEDF0DDCFEEF029
:1013A800EDC0F1F0EEC0F2F0F36BF46B0BEF0AF066
:1013B800E9C0D9FFEAC0DAFFDFCFEBF0040EDE2682
:1013C800DFCFECF0000EDD22EBC0D9FFECC0DAFF76
:1013D800DECFF1F0DECFF2F0DECFF3F0DECFF4F0C7
:1013E8000BEF0AF0F551EB6FEC6BEC51000AD8B437
:1013F80000EF0AF00BEF0AF0EB51690AD8B4C0EF1E
:1014080009F0050AD8B4DCEF09F00BEF0AF0E8514F
:10141800D96EDA6AF029DF6E7FEF0AF0200EF56FD9
:10142800F507240EF525D96EDA6A010EDA22F1C025
:10143800D8F0F2C0D9F0F3C0DAF0F4C0DBF00A0E4D
:10144800DC6F000EDD6F000EDE6F000EDF6F2EEC1E
:1014580013F00001D851300FDF6EF1C0D8F0F2C0A0
:10146800D9F0F3C0DAF0F4C0DBF00A0EDC6F000E3E
:10147800DD6F000EDE6F000EDF6F37EC12F0D8C0A4
:10148800F1F0D9C0F2F0DAC0F3F0DBC0F4F00001FB
:10149800F151F211F311F411D8B455EF0AF057EFE6
:1014A8000AF074EF0AF0F551D8A45DEF0AF05FEF87
:1014B8000AF014EF0AF074EF0AF0240EF525D96E3D
:1014C800DA6A010EDA22DF50EB6FEB51D86FD96B75
:1014D800E6C0DAF0E7C0DBF086EC11F00001F52B8E
:1014E800200EF519D8A47BEF0AF07DEF0AF061EF22
:1014F8000AF0B1EF0AF0F0C0F6FF100EF76EF86AC6
:101508000800F550EB6FEC6BEC51000AD8B48FEF84
:101518000AF096EF0AF0EB51750AD8B412EF0AF008
:1015280096EF0AF00001E851D96EDA6ADF2AB1EFC6
:101538000AF0E851D96EDA6ADFCFF6FF100EF76EBF
:10154800F86A0800F550D86FD96BE6C0DAF0E7C042
:10155800DBF086EC11F096EF0AF0120097EC19F028
:10156800880E0001D86F2A0ED96FA3EC1AF0E60E88
:101578000001D86F260ED96F8FEC1AF0500E0001BB
:10158800D86F310ED96F8AEC1AF0DE0E0001D86FD1
:10159800320ED96F85EC1AF0000E0001E46F070EC9
:1015A800E56F500E38EC1AF00B0E0101236F260E72
:1015B800226F5D0EE82EFED7222FFCD7232FFAD7F5
:1015C80000F000F0000E0001E46F080EE56F510E08
:1015D80038EC1AF00B0E0101236F260E226F5D0EF8
:1015E800E82EFED7222FFCD7232FFAD700F000F0E1
:1015F800000E0001E46F500E08EC1AF00001926F23
:101608000B0E0101236F260E226F5D0EE82EFED70A
:10161800222FFCD7232FFAD700F000F0CC0E0101BF
:10162800186FB3EC0BF0DAEC14F020EE84F0060E31
:10163800EBCFDBFFE806FCE24F0EF0EC19F00001FF
:10164800936FA80E0101006FA30E016F93C002F102
:10165800036B50EC17F0000E0001E16F93C0E2F04D
:10166800380E30EC14F00001CB05D8A43EEF0BF097
:1016780040EF0BF047EF0BF0000ED8EC17F0D8C096
:101688008BF0D9C08CF0050E0101236F0F0E226F6D
:10169800F10EE82EFED7222FFCD7232FFAD7CC0E37
:1016A80001010E6F010E0F6F72EC0DF0CC0E0101EF
:1016B8001E6F870E1F6F010E206F010E216F79ECD0
:1016C80015F0CC0E0101186F43EC16F00101196FEB
:1016D800D5EC16F0CC0E01011E6F950E1F6F020E91
:1016E800206F010E216F79EC15F0CC0E0101186FF7
:1016F80012EC16F00101196FD5EC16F0CC0E0101B1
:101708001E6F800E1F6F030E206F010E216F79EC84
:1017180015F0CC0E0101186FA80E196FD5EC16F054
:10172800070E00018619D8A49CEF0BF09EEF0BF072
:10173800A2EF0BF0010ECB6F010ECA6F0F0E010165
:10174800236FFF0E226FEA0EE82EFED7222FFCD75A
:10175800232FFAD7000017EF0BF033EF00F0010149
:101768001851D8A4BAEF0BF0BCEF0BF0BEEF0BF09A
:101778009FEF0CF091C01EF11851D96EDA6A010E74
:10178800D926DF50196F1E511919F80B19191E6F38
:101798001851D96EDA6ADF50196F19471947194776
:1017A8001E511919C70B19191E6F1E9D1E9F1E0E5B
:1017B8000A6F010E0B6F44EC0EF001011851D96E3F
:1017C800DA6A020ED926DF50196F194719471947E7
:1017D8001E511919C70B19191E6F1851D96EDA6ADB
:1017E800030ED926DF50196F1E511919F80B191954
:1017F8001E6F1E0E0A6F010E0B6F44EC0EF0000EEA
:1018080001011C6F000E1B6F90C01DF118511B25A4
:10181800D96EDA6A080ED926DF50196F1D511919C9
:10182800F80B19191D6F18511B25D96EDA6A040EA9
:10183800D926DF50196F1947194719471D5119192A
:10184800C70B19191D6F1D9D1D9F1D0E0A6F010ED7
:101858000B6F44EC0EF001011B4B1C2B1CBF3EEF21
:101868000CF01C5109E1040E1B5DD8A03EEF0CF0F2
:1018780040EF0CF008EF0CF0680E0101196FE40E50
:10188800E82EFED7192FFCD7000018C10EF1380E2C
:1018980001010F6FA0EC0CF01A0E0101196FF80E80
:1018A800E82EFED7192FFCD7000018C10EF1380E0C
:1018B80001010F6FA0EC0CF0040E01011A6F0C0E61
:1018C800196F330EE82EFED7192FFCD71A2FFAD727
:1018D80000F000F018C10EF1380E01010F6FA0ECF6
:1018E8000CF018C10EF1010E01010F6FA0EC0CF005
:1018F80018C10EF1020E01010F6FA0EC0CF018C117
:101908000EF1060E01010F6FA0EC0CF018C10EF1DC
:101918000C0E01010F6FA0EC0CF018C10EF1280E8F
:1019280001010F6FA0EC0CF018C10EF1800E01013F
:101938000F6FA0EC0CF0120001010E51D8A4A7EF14
:101948000CF0A9EF0CF0ADEF0CF0000E126F70EF79
:101958000DF08FC017F10E51D96EDA6A010ED92633
:10196800DF50106F17511019F80B1019176F0E511F
:10197800D96EDA6ADF50106F1047104710471751B9
:101988001019C70B1019176F179D179F170E026FA5
:10199800010E036F000E046FF7EC0EF0000E01014C
:1019A800146F000E136F0E511325D96EDA6A040EE8
:1019B800D926DF50106F10471047104717511019DC
:1019C800C70B1019176F0E511325D96EDA6A080E56
:1019D800D926DF50106F17511019F80B1019176F0F
:1019E800170E026F010E036F13C110F1040E1027BA
:1019F8000FC111F1102B03EF0DF0D8901133102FF8
:101A080001EF0DF001011151010B046FF7EC0EF01D
:101A18000101134B142B14BF1BEF0DF0145109E1F6
:101A2800040E135DD8A01BEF0DF01DEF0DF0D7EFDE
:101A38000CF00EC10AF16AEC14F0000E0101166FE9
:101A4800000E156F0E511525D96EDA6A040ED926C7
:101A5800DF50106F10471047104717511019C70B68
:101A68001019176F0E511525D96EDA6A080ED92686
:101A7800DF50106F17511019F80B1019176F170E48
:101A8800026F010E036F15C110F10FC111F1102B78
:101A980050EF0DF0D8901133102F4EEF0DF00101DB
:101AA8001151010B046FF7EC0EF00101154B162BC9
:101AB80016BF68EF0DF0165109E1040E155DD8A0A8
:101AC80068EF0DF06AEF0DF026EF0DF00EC10AF188
:101AD8006AEC14F00101126F1251120001010E514B
:101AE800D8A479EF0DF07BEF0DF07FEF0DF0000E2D
:101AF800126F42EF0EF08EC017F10E51D96EDA6AEE
:101B0800010ED926DF50106F17511019F80B101954
:101B1800176F0E51D96EDA6ADF50106F10471047F1
:101B2800104717511019C70B1019176F179D179FDA
:101B3800170E026F010E036F010E046FF7EC0EF023
:101B4800000E0101146F000E136F0E511325D96E8C
:101B5800DA6A040ED926DF50106F10471047104775
:101B680017511019C70B1019176F0E511325D96E7D
:101B7800DA6A080ED926DF50106F17511019F80BC2
:101B88001019176F170E026F010E036F13C110F1B2
:101B9800040E10270FC111F1102BD5EF0DF0D890BE
:101BA8001133102FD3EF0DF001011151010B046F08
:101BB800F7EC0EF00101134B142B14BFEDEF0DF0F1
:101BC800145109E1040E135DD8A0EDEF0DF0EFEF0D
:101BD8000DF0A9EF0DF00EC10AF16AEC14F0000E39
:101BE8000101166F000E156F0E511525D96EDA6AB0
:101BF800040ED926DF50106F1047104710471751B1
:101C08001019C70B1019176F0E511525D96EDA6AFE
:101C1800080ED926DF50106F17511019F80B10193C
:101C2800176F170E026F010E036F15C110F10FC168
:101C380011F1102B22EF0EF0D8901133102F20EF56
:101C48000EF001011151010B046FF7EC0EF00101C8
:101C5800154B162B16BF3AEF0EF0165109E1040E7C
:101C6800155DD8A03AEF0EF03CEF0EF0F8EF0DF04E
:101C78000EC10AF16AEC14F00101126F1251120040
:101C88000AC1D9FF0BC1DAFFDF30E832E832070BAF
:101C980001010C6F080E0C6154EF0EF056EF0EF0B8
:101CA8005FEF0EF00A510B11D8A45DEF0EF05FEF55
:101CB8000EF0C3EF0EF0000E116F210E0001FC6F45
:101CC800A9EC19F0F4EF0EF00AC1D9FF0BC1DAFF45
:101CD800DF30E832E832070B0C6F010E0D6F0C2B6A
:101CE80078EF0EF0D8900D370C2F76EF0EF001013B
:101CF8000D51FF0A0E6F0AC1D9FF0BC1DAFFDF5081
:101D0800070B020DF350C00FD96EDA6ADECF0FF160
:101D1800DDCF10F10FC1D9FF10C1DAFF0E51DF1668
:101D2800E4EF0EF00AC1D9FF0BC1DAFFDF30E83269
:101D3800E832070B0C6F010E0D6F0C2BA6EF0EF09F
:101D4800D8900D370C2FA4EF0EF00AC1D9FF0BC1A4
:101D5800DAFFDF50070B020DF350C00FD96EDA6AB5
:101D6800DECF0EF1DDCF0FF10EC1D9FF0FC1DAFFC3
:101D780001010D51DF12E4EF0EF0E4EF0EF00AC19D
:101D8800D9FF0BC1DAFFDFBCCCEF0EF0CFEF0EF0BE
:101D9800010ED0EF0EF0000E0C6F0D6B0D51000A06
:101DA800D8B4D9EF0EF0C1EF0EF00C51000AD8B438
:101DB80068EF0EF0010AD8B496EF0EF0C1EF0EF0FE
:101DC8000AC102F10BC103F10AC1D9FF0BC1DAFF45
:101DD800000EDFBE010E046FF7EC0EF00101116F6B
:101DE800010111511200010E0001FD6F02C1D9FF5E
:101DF80003C1DAFF0101DFBE04EF0FF008EF0FF0B7
:101E0800056B052B0AEF0FF00101056B020E05614A
:101E180010EF0FF012EF0FF01BEF0FF0025103114C
:101E2800D8A419EF0FF01BEF0FF082EF0FF0000EA0
:101E38000001FD6F540EFC6FA9EC19F097EF0FF03D
:101E480002C1D9FF03C1DAFFDF30E832E832070BFD
:101E5800056F010E066F052B34EF0FF0D89006378B
:101E6800052F32EF0FF001010651FF0A076F02C17B
:101E7800D9FF03C1DAFFDF50070B020DF350B60F8D
:101E8800D96EDA6ADECF08F1DDCF09F108C1D9FFD2
:101E980009C1DAFF0751DF1697EF0FF002C1D9FF2A
:101EA80003C1DAFFDF30E832E832070B056F010EB5
:101EB800066F052B62EF0FF0D8900637052F60EFFD
:101EC8000FF002C1D9FF03C1DAFFDF50070B020D83
:101ED800F350B60FD96EDA6ADECF07F1DDCF08F11D
:101EE80007C1D9FF08C1DAFF01010651DF1297EFD8
:101EF8000FF0000E0001FD6F97EF0FF00451056F12
:101F0800066B0651000AD8B48CEF0FF07DEF0FF086
:101F18000551000AD8B424EF0FF0010AD8B452EFE3
:101F28000FF07DEF0FF00001FD511200FACF12F013
:101F3800FBCF13F0D9CF14F0DACF15F0F3CF16F0AA
:101F4800F4CF17F0F6CF18F0F7CF19F0F8CF1AF052
:101F5800F5CF1BF0F2A8B3EF0FF0B5EF0FF0C0EF1D
:101F68000FF0F2A2BAEF0FF0BCEF0FF0C0EF0FF0D6
:101F7800B9EC1AF010EF10F0F0A6C5EF0FF0C7EFAC
:101F88000FF0D2EF0FF0F0A0CCEF0FF0CEEF0FF084
:101F9800D2EF0FF0B5EC1AF010EF10F0F0A8D7EF71
:101FA8000FF0D9EF0FF0E4EF0FF0F0A2DEEF0FF033
:101FB800E0EF0FF0E4EF0FF0B1EC1AF010EF10F0D3
:101FC8009DA6E9EF0FF0EBEF0FF000EF10F09EA6E3
:101FD800F0EF0FF0F2EF0FF000EF10F002D8FEEF85
:101FE8000FF00500FA6E2C50FD6E2D50FE6EFF6A44
:101FF800FA50120010EF10F0A0A605EF10F007EF4E
:1020080010F010EF10F0A1A60CEF10F00EEF10F08A
:1020180010EF10F0F2EF0FF01BC0F5FF1AC0F8FF39
:1020280019C0F7FF18C0F6FF17C0F4FF16C0F3FF7A
:1020380015C0DAFF14C0D9FF13C0FBFF12C0FAFFA6
:1020480041921100000E0001E16FDFBF30EF10F088
:102058002EEF10F03AEF10F0DF1FDE1FDD1FDC6DF2
:10206800000EDD23DE23DF23010EE16FDBBF41EF2E
:1020780010F03FEF10F04BEF10F0DB1FDA1FD91F05
:10208800D86D000ED923DA23DB23010EE11B000EE5
:10209800E26F000EE36F000EE46F000EE56FDC5197
:1020A800DD11DE11DF11D8B45CEF10F05EEF10F037
:1020B80094EF10F0010EE06F68EF10F0D890DC3765
:1020C800DD37DE37DF37E02BDFAF6DEF10F06FEF76
:1020D80010F062EF10F0D890E237E337E437E537D5
:1020E800DC51D85DDD51D959DE51DA59DF51DB5960
:1020F800D8A081EF10F083EF10F08CEF10F0DC51D6
:10210800D85FDD51D95BDE51DA5BDF51DB5BE28101
:10211800D890DF33DE33DD33DC33E02F6FEF10F0A0
:10212800E151D8B49AEF10F09CEF10F0A4EF10F042
:10213800E51FE41FE31FE26D000EE323E423E5231C
:10214800E2C0D8F0E3C0D9F0E4C0DAF0E5C0DBF0D3
:102158001200000E0001E16FDBBFB7EF10F0B5EF22
:1021680010F0C1EF10F0DB1FDA1FD91FD86D000E79
:10217800D923DA23DB23010EE16FDFBFC8EF10F0AC
:10218800C6EF10F0D0EF10F0DF1FDE1FDD1FDC6D93
:10219800000EDD23DE23DF23DC51DD11DE11DF112C
:1021A800D8B4D9EF10F0DBEF10F00BEF11F0010EFF
:1021B800E06FE5EF10F0D890DC37DD37DE37DF373A
:1021C800E02BDFAFEAEF10F0ECEF10F0DFEF10F0EC
:1021D800DC51D85DDD51D959DE51DA59DF51DB596F
:1021E800D8A0F9EF10F0FBEF10F003EF11F0DC517D
:1021F800D85FDD51D95BDE51DA5BDF51DB5BD8900C
:10220800DF33DE33DD33DC33E02FECEF10F0E15168
:10221800D8B411EF11F013EF11F01BEF11F0DB1F21
:10222800DA1FD91FD86D000ED923DA23DB23D8C0D3
:10223800D8F0D9C0D9F0DAC0DAF0DBC0DBF0120090
:102248004DEC1AF00009D8B42CEF11F02EEF11F074
:1022580069EF11F03CEF11F0D5EC1AF085EF11F0B1
:10226800D1EC1AF085EF11F0C9EC1AF085EF11F0F6
:1022780072C00AF073C00BF002D84DEF11F00500E0
:10228800FA6E00016651FD6E6751FE6EFF6AFA50E4
:1022980012000D6E0E6A0E50000AD8B456EF11F0F7
:1022A80038EF11F00D50010AD8B438EF11F0030AD5
:1022B800D8B430EF11F0010AD8B434EF11F0070A9E
:1022C800D8B438EF11F038EF11F0000183917DC0D8
:1022D800D9FF7EC0DAFF7D4B7E2BDF50D9EC1AF098
:1022E80000017F07D8A080077F518011D8A47FEF15
:1022F80011F081EF11F084EF11F0060E85EF11F067
:10230800030E12000001DA51DB11D8B48EEF11F080
:1023180090EF11F099EF11F0DA51DB11D8A497EF93
:1023280011F099EF11F09EEF11F0D85100EC1BF06D
:10233800E3EF11F020EE0AF0DA51D926DB51DA2268
:10234800DE50DE10D8B4ABEF11F0ADEF11F0C8EFEE
:1023580011F020EE0AF0DA51D926DB51DA2210EE1C
:1023680003F0DA51E126DB51E222DE50E65CE6506A
:10237800800AE06FDE50800AE059D8B0C6EF11F04D
:10238800C8EF11F0E3EF11F020EE03F0DA51D9268F
:10239800DB51DA22DF50DC6FDAC0D9FFDBC0DAFFAD
:1023A800DF50DC25D96EDA6AD8C0DFFF20EE03F0F3
:1023B800DA51D926DB51DA22DE2A000EDD2212009C
:1023C80001011A0718EF12F018C10EF11A51800F07
:1023D8000F6FA0EC0CF001011D6F35EF12F018C162
:1023E8000EF11A51C00F0F6FA0EC0CF001011D6F18
:1023F80035EF12F018C10EF11A51940F0F6FA0ECBF
:102408000CF001011D6F35EF12F018C10EF11A51D1
:10241800D40F0F6FA0EC0CF001011D6F35EF12F017
:10242800000E1D6F35EF12F019511B6F1C6B1C51FC
:10243800000AD8B422EF12F014EF12F01B51010A6F
:10244800D8B4E8EF11F0030AD8B4F3EF11F0010A99
:10245800D8B4FEEF11F0070AD8B409EF12F014EF60
:1024680012F01D511200000E0001E16F000EE26F24
:10247800000EE36F000EE46FDC51DD11DE11DF1199
:10248800D8B449EF12F04BEF12F081EF12F0010EC1
:10249800E06F55EF12F0D890DC37DD37DE37DF37E5
:1024A800E02BDFAF5AEF12F05CEF12F04FEF12F0B3
:1024B800D890E137E237E337E437DC51D85DDD51B6
:1024C800D959DE51DA59DF51DB59D8A06EEF12F035
:1024D80070EF12F079EF12F0DC51D85FDD51D95B63
:1024E800DE51DA5BDF51DB5BE181D890DF33DE332D
:1024F800DD33DC33E02F5CEF12F0E1C0D8F0E2C04E
:10250800D9F0E3C0DAF0E4C0DBF01200F4EC1AF022
:102518007DC0D9FF7EC0DAFFDF6E00017D4B7E2BC8
:102528007F07D8A080077F518011D8B49EEF12F0A2
:10253800A0EF12F0A5EF12F0E0EC1AF0050EDCEFB8
:1025480012F08387B0EF12F0BDEC1AF0DCEF12F056
:10255800C1EC1AF0DCEF12F06CC00AF06DC00BF0A1
:1025680002D8C0EF12F00500FA6E6051FD6E61519D
:10257800FE6EFF6AFA5012000D6E0E6A0E50000AC7
:10258800D8B4C9EF12F0ACEF12F00D50010AD8B46C
:10259800ACEF12F0030AD8B4A8EF12F0010AD8B4CD
:1025A800A8EF12F0070AD8B4ACEF12F0ACEF12F0B3
:1025B80012000001DA6F010E0001DB6F83B5E7EF4F
:1025C80012F0E9EF12F02CEF13F0DAC07CF08393ED
:1025D800838583910E0E816F010E7B6FF40E7A6FE7
:1025E8008387F40E606F350E616F000E6C6F000EFE
:1025F8006D6FF40E626F350E636F000E6E6F000E16
:102608006F6FF40E646F350E656F000E706F000EFD
:10261800716FF40E666F350E676F000E726F000EE5
:10262800736FF00E686F350E696F000E746F000ED1
:10263800756FBA0ED86F350ED96FA8EC1AF0EEEC9C
:102648001AF0DFEC19F0E6EC1AF0000E0001DB6F6F
:10265800DB5112000001DC51DD11DE11DF11D8B4AD
:1026680038EF13F03AEF13F06AEF13F0010EE06F52
:1026780044EF13F0D890DC37DD37DE37DF37E02B57
:10268800DFAF49EF13F04BEF13F03EEF13F0DC51DF
:10269800D85DDD51D959DE51DA59DF51DB59D8A05F
:1026A80058EF13F05AEF13F062EF13F0DC51D85FD4
:1026B800DD51D95BDE51DA5BDF51DB5BD890DF336C
:1026C800DE33DD33DC33E02F4BEF13F0D8C0D8F026
:1026D800D9C0D9F0DAC0DAF0DBC0DBF012000001B3
:1026E800CA51CB19D8A47BEF13F07DEF13F0AEEFEE
:1026F80013F0CB05D8A483EF13F085EF13F09CEF0C
:1027080013F089B68AEF13F08DEF13F0010E8EEFF8
:1027180013F0000EFF0A016E01460146014689507A
:102728000118F70B0118896E000ECB6F9EEF13F09E
:10273800010ECB6FCA05D8A4A4EF13F0A6EF13F0CF
:10274800AAEF13F0000ECA6FB2EF13F0010ECA6FB2
:10275800B2EF13F0010ECB6F010ECA6F1200000129
:10276800E26F000E0001E36F0001E251DDEC12F0B0
:102778000009D8B4C2EF13F0C4EF13F0B8EF13F0A8
:10278800860E0001DD6F320EDE6FE30EDF6FE06B49
:1027980014EC1AF0E10E0001D86FD96B000EDB6F54
:1027A800010EDA6FBBEC19F0000E0001DD6F000EB0
:1027B800DE6F000EDF6F000EE06F20EC1AF0ADEC5C
:1027C8001AF07AEC18F0E806D8B4EDEF13F0EFEF52
:1027D80013F0E5EF13F00001E351120000018387C5
:1027E80003EF14F0CDEC1AF02FEF14F0F2EC1AF01E
:1027F800030E2FEF14F0C9EC1AF02FEF14F06CC091
:102808000AF06DC00BF002D813EF14F00500FA6E51
:102818006051FD6E6151FE6EFF6AFA5012000D6E36
:102828000E6A0E50000AD8B41CEF14F0FFEF13F034
:102838000D50010AD8B4FFEF13F0030AD8B4F6EF2D
:1028480013F0010AD8B4F6EF13F0070AD8B4FAEF78
:1028580013F0FFEF13F012000001E36F0001E351E2
:10286800DDEC12F00009D8B43CEF14F03EEF14F0A0
:1028780032EF14F02E0E0001DD6F320EDE6FE20E25
:10288800DF6FE06B14EC1AF0E10E0001D86FD96B22
:10289800000EDB6F010EDA6FBBEC19F0000E0001C1
:1028A800DD6F000EDE6F000EDF6F000EE06F20ECB4
:1028B8001AF0ADEC1AF07AEC18F0E806D8B467EF25
:1028C80014F069EF14F05FEF14F012008DC00DF1F1
:1028D80001010A51D96EDA6A030ED926DF500B6F4F
:1028E8000D510B19F80B0B190D6F0A51D96EDA6AD5
:1028F800020ED926DF500B6F0B470B470B470D51C4
:102908000B19C70B0B190D6F0D9D0D9F0D0E026F47
:10291800010E036F010E046FF7EC0EF00D0EE82E9A
:10292800FED700000D0E0101026F010E036F000EAD
:10293800046FF7EC0EF001010C6F0C511200F0EC73
:102948001AF0000183A1ABEF14F0ADEF14F0BAEF69
:1029580014F04DEC1AF00009D8B4B5EF14F0B7EF45
:1029680014F0BAEF14F00F0E0001816F00018151CD
:10297800020DF350010F0F6E0FC0F6FF100EF76E29
:10298800F86A0900F5CF10F00900F5CF11F002D868
:10299800D7EF14F00500FA6E1050FD6E1150FE6E60
:1029A800FF6AFA5012000001816F1200000E000148
:1029B800E16F680EB3EC13F0216E010E0001E16FB8
:1029C800680EB3EC13F0226E020E0001E16F680E80
:1029D800B3EC13F0236E040E0001E16F680EB3EC44
:1029E80013F0246E050E0001E16F680EB3EC13F0CE
:1029F800256E060E0001E16F680EB3EC13F0266E2B
:102A0800278020EE21F000EEE4F0060EDBCFEBFF8E
:102A1800E806FCE212000001DC6F0001D851D91170
:102A2800D8B419EF15F01BEF15F031EF15F0DC51A4
:102A3800020DF350600FD96EDA6AD8C0DEFFD9C034
:102A4800DDFFDC51020DF3506C0FD96EDA6ADAC083
:102A5800DEFFDBC0DDFF43EF15F0DC51020DF35064
:102A6800600FD96EDA6AF40EDE6E350EDD6EDC515B
:102A7800020DF3506C0FD96EDA6ADE6ADD6A120055
:102A88000001CB05D8A44BEF15F04DEF15F05CEF26
:102A980015F0110E8B5D270E8C59D8B056EF15F036
:102AA80058EF15F05BEF15F089865CEF15F0899605
:102AB800CA05D8A462EF15F064EF15F078EF15F0A9
:102AC800180E86616AEF15F06CEF15F074EF15F0CB
:102AD800050E866172EF15F074EF15F077EF15F0BB
:102AE800898878EF15F08998120001011E51D8A441
:102AF80080EF15F082EF15F084EF15F0ABEF15F0CD
:102B08001EC118F120C119F121C11AF1E4EC11F02C
:102B18009CEF15F01EC10EF11FC1F6FF100EF76EE7
:102B2800F86A0800F5CF0FF172EC0DF001011F2BC8
:102B38001FC1F6FF100EF76EF86A0800F55000097D
:102B4800D8A4A9EF15F0ABEF15F08EEF15F0120031
:102B580000018391020E826FBAEF15F0CDEC1AF0E6
:102B6800DEEF15F0C9EC1AF0DEEF15F070C00AF0D0
:102B780071C00BF002D8CAEF15F00500FA6E645167
:102B8800FD6E6551FE6EFF6AFA5012000D6E0E6AF8
:102B98000E50000AD8B4D3EF15F0B6EF15F00D506B
:102BA800020AD8B4B2EF15F0010AD8B4B2EF15F0A2
:102BB800B6EF15F01200056E01500210D8B4E7EF19
:102BC80015F0E9EF15F0FFEF15F00550020DF35081
:102BD800600FD96EDA6A01C0DEFF02C0DDFF055062
:102BE800020DF3506C0FD96EDA6A03C0DEFF04C021
:102BF800DDFF11EF16F00550020DF350600FD96E8E
:102C0800DA6AF40EDE6E350EDD6E0550020DF350F5
:102C18006C0FD96EDA6ADE6ADD6A12004CEC18F0C5
:102C280034380F0B300F00019E6F34500F0B300FEC
:102C38009F6F3A0EA06F33380F0B300FA16F3350D0
:102C48000F0B300FA26F3A0EA36F32380F0B300FF5
:102C5800A46F32500F0B300FA56F0D0EA66F950E97
:102C6800DC6FDC51D8A4100EDD6F74EC16F09E0EEC
:102C78000001DC6FDD6B74EC16F09E0E120063EC45
:102C880018F037380F0B300F0001946F37500F0BC7
:102C9800300F956F2F0E966F36380F0B300F976FDA
:102CA80036500F0B300F986F2F0E996F35380F0B6A
:102CB800300F9A6F35500F0B300F9B6F0D0E9C6FB6
:102CC8008E0EDC6FDC51D8A4100EDD6F74EC16F09C
:102CD800940E0001DC6FDD6B74EC16F0940E12009C
:102CE800DCC0D8F0DDC0D9F000EC17F0D8C0DEF0B9
:102CF800D9C0DFF096EF16F0DCC0F6FFDDC0F7FFB5
:102D0800000EF86E0F0EF76403D00800F55005D0DA
:102D1800F6CFE9FFF7CFEAFFEF50FCEC19F000011E
:102D2800DC4BDD2B0001DE07D8A0DF07DE2906E13A
:102D3800DF29D8A4A2EF16F0A4EF16F080EF16F062
:102D480012007E0EF66E310EF76E000EF86E00EE73
:102D5800ACF010EE2CF00900F5CFEEFFE550E15095
:102D6800FAE10A0EF66E360EF76E000EF86E0900DE
:102D7800F5CF40F001EE24F0200EEE6AE806FDE102
:102D880000EE60F04C0EEE6AE806FDE100EE21F080
:102D9800170EEE6AE806FDE1419041920001B2EF9C
:102DA8000AF019C11AF119C1D8F00001D96B00EC69
:102DB80017F00001D85101011B6F1851D8A4E7EF93
:102DC80016F0E9EF16F0F6EF16F0FFEF16F018C15F
:102DD8000EF11951D96EDA6ADF500F6F72EC0DF0EF
:102DE8000101192B1B071B29D8A4FDEF16F0FFEFD3
:102DF80016F0EBEF16F01200D8C0DAF0D9C0DBF00D
:102E080009EF17F00001D84BD92BD8C0F6FFD9C06D
:102E1800F7FF000EF86E0F0EF76403D00800F550A8
:102E280005D0F6CFE9FFF7CFEAFFEF500009D8A4A5
:102E380020EF17F022EF17F006EF17F00001DA5134
:102E4800D85DD86FDB51D959D96F1200F8C0FBF0A3
:102E58003BEF17F0F6C0E6F0F7C0E7F0FB0E000115
:102E6800E86FF9C0E9F0FAC0EAF054EC08F0FBC0EA
:102E7800F6FF100EF76EF86A0800F5500009D8A49E
:102E880048EF17F04AEF17F02EEF17F0000E000189
:102E9800F76F000EF66F1200020E0101066F010EA9
:102EA800076F00C108F1000E0C6F000E0B6F000ECB
:102EB800136F000E126F080E0001F66F010EF76F08
:102EC80001C1F8F0060EF96F010EFA6F2AEC17F03F
:102ED800010100510B25D96EDA6ADF6A1200080E6B
:102EE800B86E900EAB6E240EAC6EA00EAF6E010ED7
:102EF800B06E000E0001D86F000ED96F99EC1AF071
:102F0800000E0001D86F000ED96F94EC1AF0000E75
:102F18000001D86F000ED96F9EEC1AF0000E316ECA
:102F280012000001D86F010E0001D96F83B39FEF23
:102F380017F0A1EF17F0B4EF17F08383000ED96FE5
:102F4800D851D8B4AAEF17F0ACEF17F0B0EF17F0DC
:102F5800010E816FB2EF17F0020E816FE8EC1AF0E4
:102F68000001D951120020EE02F00A50D9260B5068
:102F7800DA22DF500C6E0CC001F0026A0AC0D9FFD9
:102F88000BC0DAFFDECF03F0DDCF04F0CDEC19F093
:102F9800000E066E000E076E000E086E000E096E1B
:102FA8002CEC1AF0020E12000001DC6FDCC0DAF023
:102FB8000001DA47DA47C250DA19C30BDA19C26ED0
:102FC800C280C282C2B2EBEF17F0EDEF17F0E6EF66
:102FD80017F0C4500001DB6FDA6BC350DA25D86FE5
:102FE800000EDB21D96F1200F292F18C080E00015D
:102FF800D86F360ED96F8FEC1AF0F288F090F18AFC
:10300800060E0001D86F360ED96F8AEC1AF0F086DA
:10301800F092F188040E0001D86F360ED96F85EC56
:103028001AF0F08812000001E3BF1DEF18F01FEF3F
:1030380018F025EF18F0E2C0E2F0E3C0E3F031EF5A
:1030480018F0E2C0E4F0E3C0E5F0E41FE51FE44B4C
:10305800E52BE4C0E2F0E5C0E3F01200000E8D6E4F
:10306800000E8C6E000E896E000E8A6E000E8B6E3E
:10307800070E966EE70E926E9368BF0E946EFE0E64
:10308800956E7E680A0E7F6E000E7C6EF18E1200C1
:1030980027B051EF18F053EF18F05CEF18F0DAECA6
:1030A80014F020EE21F0060EEBCFDBFFE806FCE281
:1030B80023C032F022C033F021C034F0120027B010
:1030C80068EF18F06AEF18F073EF18F0DAEC14F004
:1030D80020EE21F0060EEBCFDBFFE806FCE226C06F
:1030E80035F025C036F024C037F01200010E00017B
:1030F800D86F83B382EF18F084EF18F08EEF18F0D2
:1031080083957C69EEEC1AF0EAEC1AF0ECEC1AF014
:1031180082C0D8F00001D85112009E9C3E503F104A
:10312800D8B499EF18F09BEF18F0A7EF18F002D871
:10313800A7EF18F00500FA6E3E50FD6E3F50FE6E88
:10314800FF6AFA501200120089B6ADEF18F0B0EF1E
:1031580018F0010EB1EF18F0000EFF0A016E0146DB
:103168000146014689500118F70B0118896E000EB7
:103178000001CB6F1200800F810F820F830F840F25
:10318800890F8A0F8B0F8C0F8D0F920F930F940F4F
:10319800950F960F010100030103020304050303C1
:1031A800030338503910D8B4DCEF18F0DEEF18F00C
:1031B800EAEF18F002D8EAEF18F00500FA6E385076
:1031C800FD6E3950FE6EFF6AFA50120012003A5036
:1031D8003B10D8B4F2EF18F0F4EF18F000EF19F044
:1031E80002D800EF19F00500FA6E3A50FD6E3B5018
:1031F800FE6EFF6AFA50120012003C503D10D8B41F
:1032080008EF19F00AEF19F016EF19F002D816EFC7
:1032180019F00500FA6E3C50FD6E3D50FE6EFF6AD7
:10322800FA50120012000AC001F00BC002F0000EA2
:10323800046E010E036ECDEC19F0000E066E000E42
:10324800076E000E086E000E096E2CEC1AF0040EC4
:1032580012000AC001F00BC002F0000E046E020E4C
:10326800036ECDEC19F0000E066E000E076E000E10
:10327800086E000E096E2CEC1AF0020E12000AC03D
:1032880001F00BC002F0000E046E010E036ECDECCF
:1032980019F0000E066E000E076E000E086E000E86
:1032A800096E2CEC1AF0020E12000AC001F00BC0D5
:1032B80002F0000E046E020E036ECDEC19F0000E43
:1032C800066E000E076E000E086E000E096E2CECDE
:1032D8001AF0040E120089B874EF19F077EF19F09C
:1032E800010E78EF19F0000EFF0A016E013A8950BD
:1032F8000118EF0B0118896E000E0001CA6F120049
:10330800000EC16E040EC06E000EC36E000EC46EB9
:10331800010EC26E9D8C020E0001D86F360ED96F59
:10332800A3EC1AF0120067EC1AF043EC1AF032EC36
:1033380018F080EC1AF0F8EC17F084EC19F073EC44
:1033480017F0F28EF28CF28C1200FD0E0101006F64
:10335800016B000E0001F66F000EF76FFCC0F8F06D
:10336800000EF96F010EFA6F2AEC17F01200000137
:1033780083A7C1EF19F0C3EF19F0CCEF19F0D8C04B
:103388007DF0D9C07EF0DAC07FF0DBC080F0839793
:103398001200000183A7D3EF19F0D5EF19F0DEEF83
:1033A80019F001C07DF002C07EF003C07FF004C0B8
:1033B80080F083971200C6BAE4EF19F0E6EF19F02F
:1033C800EFEF19F0000EC76E080EC66E000EC56E40
:1033D800270EC86EC68A12000001E46F000E0001B5
:1033E800E16FE451B3EC13F00001E56FE551120011
:1033F8000001D86F9EA803EF1AF005EF1AF0FEEF50
:1034080019F0D8C0ADFF12000001E56FE4C0E1F08B
:103418000001E551B3EC13F00001E66FE65112002C
:10342800DDC0D8F0DEC0D9F0DFC0DAF0E0C0DBF0F4
:10343800000E0FEC15F01200DDC0D8F0DEC0D9F098
:10344800DFC0DAF0E0C0DBF0020E0FEC15F012007E
:1034580006C001F007C002F008C003F009C004F07C
:10346800000EDFEC15F012000001E66FE4C0E1F099
:10347800E5C0E2F00001E65130EC14F01200000E55
:10348800C76E080EC66E000EC56E270EC86EC69AA9
:103498001200C5BC52EF1AF055EF1AF0010E56EFA4
:1034A8001AF0000E1200000183817C517C25D9ECB2
:1034B8001AF0030E120000018381D8807C35D9EC04
:1034C8001AF0050E1200D08EF08CF08E9F86A28620
:1034D8009F9C120000018393000E826F0E0E120053
:1034E80000018391F6EC1AF0040E12000001839398
:1034F800000E826F0E0E1200300ED36E000E9B6E01
:103508001200D8C038F0D9C039F01200D8C03AF04B
:10351800D9C03BF01200D8C03CF0D9C03DF0120031
:10352800D8C046F1D9C047F11200D8C0FEF0D9C0C2
:10353800FFF01200D8C044F1D9C045F11200D8C03C
:103548003EF0D9C03FF01200D8C02CF0D9C02DF001
:103558001200000E95EC17F01200F092D5EC18F05E
:103568001200F090EBEC18F01200F29201EC19F056
:103578001200E3EC1AF0090E1200E3EC1AF00A0E3E
:103588001200E0EC1AF0050E1200FCEC1AF0000E26
:103598001200FEEC1AF0010E1200FEEC1AF0020EF8
:1035A8001200FEEC1AF0010E1200016E01C0C9FFF4
:1035B8001200A3EC14F01200C59AC5881200C58A3F
:1035C800C58812009D861200C58012009D961200C3
:1035D800C69A12009E9612009E9612009E861200AF
:1035E800C9501200C5861200050E1200010E120005
:1035F800C5841200C58212001200120012001200C7
:03360800120001AC
:020000040030CA
:0E000000FF021F1EFF8B85FF0FC00FE00F4099
:00000001FF
